{
  "contractName": "PIXBY",
  "abi": [
    {
      "constant": true,
      "inputs": [],
      "name": "passiveInvestorIndex",
      "outputs": [
        {
          "internalType": "uint256",
          "name": "",
          "type": "uint256"
        }
      ],
      "payable": false,
      "stateMutability": "view",
      "type": "function"
    },
    {
      "constant": true,
      "inputs": [],
      "name": "name",
      "outputs": [
        {
          "internalType": "string",
          "name": "",
          "type": "string"
        }
      ],
      "payable": false,
      "stateMutability": "view",
      "type": "function"
    },
    {
      "constant": true,
      "inputs": [],
      "name": "minForPassive",
      "outputs": [
        {
          "internalType": "uint256",
          "name": "",
          "type": "uint256"
        }
      ],
      "payable": false,
      "stateMutability": "view",
      "type": "function"
    },
    {
      "constant": true,
      "inputs": [],
      "name": "fundsWallet",
      "outputs": [
        {
          "internalType": "address payable",
          "name": "",
          "type": "address"
        }
      ],
      "payable": false,
      "stateMutability": "view",
      "type": "function"
    },
    {
      "constant": true,
      "inputs": [],
      "name": "decimals",
      "outputs": [
        {
          "internalType": "uint256",
          "name": "",
          "type": "uint256"
        }
      ],
      "payable": false,
      "stateMutability": "view",
      "type": "function"
    },
    {
      "constant": true,
      "inputs": [],
      "name": "standard",
      "outputs": [
        {
          "internalType": "string",
          "name": "",
          "type": "string"
        }
      ],
      "payable": false,
      "stateMutability": "view",
      "type": "function"
    },
    {
      "constant": true,
      "inputs": [],
      "name": "interestRate",
      "outputs": [
        {
          "internalType": "uint256",
          "name": "",
          "type": "uint256"
        }
      ],
      "payable": false,
      "stateMutability": "view",
      "type": "function"
    },
    {
      "constant": true,
      "inputs": [],
      "name": "symbol",
      "outputs": [
        {
          "internalType": "string",
          "name": "",
          "type": "string"
        }
      ],
      "payable": false,
      "stateMutability": "view",
      "type": "function"
    },
    {
      "constant": true,
      "inputs": [],
      "name": "Percent",
      "outputs": [
        {
          "internalType": "uint256",
          "name": "",
          "type": "uint256"
        }
      ],
      "payable": false,
      "stateMutability": "view",
      "type": "function"
    },
    {
      "constant": true,
      "inputs": [],
      "name": "maxForPassive",
      "outputs": [
        {
          "internalType": "uint256",
          "name": "",
          "type": "uint256"
        }
      ],
      "payable": false,
      "stateMutability": "view",
      "type": "function"
    },
    {
      "constant": true,
      "inputs": [],
      "name": "totalInvestmentAfterInterest",
      "outputs": [
        {
          "internalType": "uint256",
          "name": "",
          "type": "uint256"
        }
      ],
      "payable": false,
      "stateMutability": "view",
      "type": "function"
    },
    {
      "inputs": [
        {
          "internalType": "address payable",
          "name": "_fundsWallet",
          "type": "address"
        }
      ],
      "payable": false,
      "stateMutability": "nonpayable",
      "type": "constructor"
    },
    {
      "payable": true,
      "stateMutability": "payable",
      "type": "fallback"
    },
    {
      "anonymous": false,
      "inputs": [
        {
          "indexed": true,
          "internalType": "address",
          "name": "_investor2",
          "type": "address"
        },
        {
          "indexed": false,
          "internalType": "uint256",
          "name": "_investmentValue2",
          "type": "uint256"
        },
        {
          "indexed": false,
          "internalType": "uint256",
          "name": "_ID2",
          "type": "uint256"
        },
        {
          "indexed": false,
          "internalType": "uint256",
          "name": "_unlocktime2",
          "type": "uint256"
        },
        {
          "indexed": false,
          "internalType": "uint256",
          "name": "_dailyIncome",
          "type": "uint256"
        },
        {
          "indexed": false,
          "internalType": "uint256",
          "name": "_investmentTime",
          "type": "uint256"
        }
      ],
      "name": "PassiveDeposit",
      "type": "event"
    },
    {
      "anonymous": false,
      "inputs": [
        {
          "indexed": true,
          "internalType": "address",
          "name": "_acclaimer2",
          "type": "address"
        },
        {
          "indexed": true,
          "internalType": "uint256",
          "name": "_amout2",
          "type": "uint256"
        }
      ],
      "name": "PassiveSpent",
      "type": "event"
    },
    {
      "anonymous": false,
      "inputs": [
        {
          "indexed": true,
          "internalType": "address",
          "name": "_from",
          "type": "address"
        },
        {
          "indexed": true,
          "internalType": "address",
          "name": "_to",
          "type": "address"
        },
        {
          "indexed": false,
          "internalType": "uint256",
          "name": "_value",
          "type": "uint256"
        }
      ],
      "name": "Transfer",
      "type": "event"
    },
    {
      "anonymous": false,
      "inputs": [
        {
          "indexed": true,
          "internalType": "address",
          "name": "_owner",
          "type": "address"
        },
        {
          "indexed": true,
          "internalType": "address",
          "name": "_spender",
          "type": "address"
        },
        {
          "indexed": false,
          "internalType": "uint256",
          "name": "_value",
          "type": "uint256"
        }
      ],
      "name": "Approval",
      "type": "event"
    },
    {
      "constant": true,
      "inputs": [],
      "name": "totalSupply",
      "outputs": [
        {
          "internalType": "uint256",
          "name": "",
          "type": "uint256"
        }
      ],
      "payable": false,
      "stateMutability": "view",
      "type": "function"
    },
    {
      "constant": false,
      "inputs": [
        {
          "internalType": "address",
          "name": "recipient",
          "type": "address"
        },
        {
          "internalType": "uint256",
          "name": "amount",
          "type": "uint256"
        }
      ],
      "name": "transfer",
      "outputs": [
        {
          "internalType": "bool",
          "name": "",
          "type": "bool"
        }
      ],
      "payable": false,
      "stateMutability": "nonpayable",
      "type": "function"
    },
    {
      "constant": false,
      "inputs": [
        {
          "internalType": "address",
          "name": "spender",
          "type": "address"
        },
        {
          "internalType": "uint256",
          "name": "value",
          "type": "uint256"
        }
      ],
      "name": "approve",
      "outputs": [
        {
          "internalType": "bool",
          "name": "",
          "type": "bool"
        }
      ],
      "payable": false,
      "stateMutability": "nonpayable",
      "type": "function"
    },
    {
      "constant": false,
      "inputs": [
        {
          "internalType": "address",
          "name": "sender",
          "type": "address"
        },
        {
          "internalType": "address",
          "name": "recipient",
          "type": "address"
        },
        {
          "internalType": "uint256",
          "name": "amount",
          "type": "uint256"
        }
      ],
      "name": "transferFrom",
      "outputs": [
        {
          "internalType": "bool",
          "name": "",
          "type": "bool"
        }
      ],
      "payable": false,
      "stateMutability": "nonpayable",
      "type": "function"
    },
    {
      "constant": true,
      "inputs": [
        {
          "internalType": "address",
          "name": "owner",
          "type": "address"
        },
        {
          "internalType": "address",
          "name": "spender",
          "type": "address"
        }
      ],
      "name": "allowance",
      "outputs": [
        {
          "internalType": "uint256",
          "name": "",
          "type": "uint256"
        }
      ],
      "payable": false,
      "stateMutability": "view",
      "type": "function"
    },
    {
      "constant": true,
      "inputs": [
        {
          "internalType": "address",
          "name": "account",
          "type": "address"
        }
      ],
      "name": "balanceOf",
      "outputs": [
        {
          "internalType": "uint256",
          "name": "",
          "type": "uint256"
        }
      ],
      "payable": false,
      "stateMutability": "view",
      "type": "function"
    },
    {
      "constant": false,
      "inputs": [
        {
          "internalType": "address",
          "name": "spender",
          "type": "address"
        },
        {
          "internalType": "uint256",
          "name": "addedValue",
          "type": "uint256"
        }
      ],
      "name": "increaseAllowance",
      "outputs": [
        {
          "internalType": "bool",
          "name": "",
          "type": "bool"
        }
      ],
      "payable": false,
      "stateMutability": "nonpayable",
      "type": "function"
    },
    {
      "constant": false,
      "inputs": [
        {
          "internalType": "address",
          "name": "spender",
          "type": "address"
        },
        {
          "internalType": "uint256",
          "name": "subtractedValue",
          "type": "uint256"
        }
      ],
      "name": "decreaseAllowance",
      "outputs": [
        {
          "internalType": "bool",
          "name": "",
          "type": "bool"
        }
      ],
      "payable": false,
      "stateMutability": "nonpayable",
      "type": "function"
    },
    {
      "constant": false,
      "inputs": [
        {
          "internalType": "uint256",
          "name": "amount",
          "type": "uint256"
        }
      ],
      "name": "burn",
      "outputs": [],
      "payable": false,
      "stateMutability": "nonpayable",
      "type": "function"
    },
    {
      "constant": false,
      "inputs": [
        {
          "internalType": "uint256",
          "name": "_amount",
          "type": "uint256"
        },
        {
          "internalType": "uint256",
          "name": "_unlockTime",
          "type": "uint256"
        }
      ],
      "name": "makePassiveIncomeInvestment",
      "outputs": [
        {
          "internalType": "uint256",
          "name": "",
          "type": "uint256"
        }
      ],
      "payable": false,
      "stateMutability": "nonpayable",
      "type": "function"
    },
    {
      "constant": false,
      "inputs": [
        {
          "internalType": "uint256",
          "name": "_passiveIncomeID",
          "type": "uint256"
        }
      ],
      "name": "releasePassiveIncome",
      "outputs": [
        {
          "internalType": "bool",
          "name": "success",
          "type": "bool"
        }
      ],
      "payable": false,
      "stateMutability": "nonpayable",
      "type": "function"
    },
    {
      "constant": true,
      "inputs": [
        {
          "internalType": "uint256",
          "name": "_passiveIncomeID",
          "type": "uint256"
        }
      ],
      "name": "getPassiveDetails",
      "outputs": [
        {
          "internalType": "address",
          "name": "investorAddress2",
          "type": "address"
        },
        {
          "internalType": "uint256",
          "name": "investedAmount2",
          "type": "uint256"
        },
        {
          "internalType": "uint256",
          "name": "dailyPassiveIncome",
          "type": "uint256"
        },
        {
          "internalType": "uint256",
          "name": "investmentTimeStamp",
          "type": "uint256"
        },
        {
          "internalType": "uint256",
          "name": "investmentUnlocktime2",
          "type": "uint256"
        },
        {
          "internalType": "uint256",
          "name": "day",
          "type": "uint256"
        },
        {
          "internalType": "bool",
          "name": "spent2",
          "type": "bool"
        }
      ],
      "payable": false,
      "stateMutability": "view",
      "type": "function"
    },
    {
      "constant": true,
      "inputs": [
        {
          "internalType": "uint256",
          "name": "_passiveIncomeID",
          "type": "uint256"
        }
      ],
      "name": "getPassiveIncomeDay",
      "outputs": [
        {
          "internalType": "uint256",
          "name": "",
          "type": "uint256"
        }
      ],
      "payable": false,
      "stateMutability": "view",
      "type": "function"
    },
    {
      "constant": true,
      "inputs": [
        {
          "internalType": "uint256",
          "name": "_passiveIncomeID",
          "type": "uint256"
        }
      ],
      "name": "getPassiveIncomeStatus",
      "outputs": [
        {
          "internalType": "bool",
          "name": "",
          "type": "bool"
        }
      ],
      "payable": false,
      "stateMutability": "view",
      "type": "function"
    },
    {
      "constant": true,
      "inputs": [
        {
          "internalType": "uint256",
          "name": "_passiveIncomeID",
          "type": "uint256"
        }
      ],
      "name": "getPassiveInvestmentTerm",
      "outputs": [
        {
          "internalType": "uint256",
          "name": "",
          "type": "uint256"
        }
      ],
      "payable": false,
      "stateMutability": "view",
      "type": "function"
    },
    {
      "constant": true,
      "inputs": [
        {
          "internalType": "uint256",
          "name": "_passiveIncomeID",
          "type": "uint256"
        }
      ],
      "name": "getPassiveNumberOfDays",
      "outputs": [
        {
          "internalType": "uint256",
          "name": "",
          "type": "uint256"
        }
      ],
      "payable": false,
      "stateMutability": "view",
      "type": "function"
    },
    {
      "constant": true,
      "inputs": [
        {
          "internalType": "uint256",
          "name": "_passiveIncomeID",
          "type": "uint256"
        }
      ],
      "name": "getPassiveInvestmentTimeStamp",
      "outputs": [
        {
          "internalType": "uint256",
          "name": "",
          "type": "uint256"
        }
      ],
      "payable": false,
      "stateMutability": "view",
      "type": "function"
    },
    {
      "constant": true,
      "inputs": [],
      "name": "getBlockTimestamp",
      "outputs": [
        {
          "internalType": "uint256",
          "name": "blockTimestamp",
          "type": "uint256"
        }
      ],
      "payable": false,
      "stateMutability": "view",
      "type": "function"
    },
    {
      "constant": true,
      "inputs": [
        {
          "internalType": "uint256",
          "name": "_investment",
          "type": "uint256"
        },
        {
          "internalType": "uint256",
          "name": "_term",
          "type": "uint256"
        }
      ],
      "name": "getInterestRate",
      "outputs": [
        {
          "internalType": "uint256",
          "name": "rate",
          "type": "uint256"
        }
      ],
      "payable": false,
      "stateMutability": "view",
      "type": "function"
    },
    {
      "constant": true,
      "inputs": [
        {
          "internalType": "uint256",
          "name": "_passiveIncomeID",
          "type": "uint256"
        }
      ],
      "name": "getSimulatedDailyIncome",
      "outputs": [
        {
          "internalType": "uint256",
          "name": "_numberOfDaysHeld",
          "type": "uint256"
        },
        {
          "internalType": "uint256",
          "name": "_numberOfDaysOwed",
          "type": "uint256"
        },
        {
          "internalType": "uint256",
          "name": "_totalDailyPassiveIncome",
          "type": "uint256"
        },
        {
          "internalType": "uint256",
          "name": "_dailyPassiveIncome",
          "type": "uint256"
        },
        {
          "internalType": "uint256",
          "name": "_totalReward",
          "type": "uint256"
        },
        {
          "internalType": "uint256",
          "name": "_day",
          "type": "uint256"
        },
        {
          "internalType": "bool",
          "name": "_spent",
          "type": "bool"
        }
      ],
      "payable": false,
      "stateMutability": "view",
      "type": "function"
    }
  ],
  "bytecode": "0x608060405260016002556012600a0a6188b8026003556012600a0a622625a0026004556012600a0a631ad274800260055534801561003c57600080fd5b506040516131f03803806131f08339818101604052602081101561005f57600080fd5b810190808051906020019092919050505060055460008190555080600660006101000a81548173ffffffffffffffffffffffffffffffffffffffff021916908373ffffffffffffffffffffffffffffffffffffffff160217905550600554600860003373ffffffffffffffffffffffffffffffffffffffff1673ffffffffffffffffffffffffffffffffffffffff16815260200190815260200160002081905550600060086000600173ffffffffffffffffffffffffffffffffffffffff1673ffffffffffffffffffffffffffffffffffffffff168152602001908152602001600020819055503373ffffffffffffffffffffffffffffffffffffffff16600173ffffffffffffffffffffffffffffffffffffffff167fddf252ad1be2c89b69c2b068fc378daa952ba7f163c4a11628f55a4df523b3ef6005546040518082815260200191505060405180910390a350613032806101be6000396000f3fe6080604052600436106101d85760003560e01c8063796b89b911610102578063c6dfa13f11610095578063e04a42aa11610064578063e04a42aa14610b82578063e546c0ca14610bd5578063fa52b0e014610c00578063ffabca9414610c4f576101d8565b8063c6dfa13f146109d0578063d62c769614610a29578063d69a298614610a54578063dd62ed3e14610afd576101d8565b80639b88bf28116100d15780639b88bf2814610866578063a457c2d714610891578063a9059cbb14610904578063b79dff1d14610977576101d8565b8063796b89b9146107315780637c3a00fd1461075c5780638185de3c1461078757806395d89b41146107d6576101d8565b80632194f3a21161017a57806342966c681161014957806342966c68146105b25780634965d5d8146105ed5780635a3b7e421461063c57806370a08231146106cc576101d8565b80632194f3a21461042a57806323b872dd14610481578063313ce56714610514578063395093511461053f576101d8565b80630a8d51c7116101b65780630a8d51c71461030857806318160ddd146103575780631c6fcf7c146103825780631f005e8c146103ff576101d8565b8063014a8231146101da57806306fdde0314610205578063095ea7b314610295575b005b3480156101e657600080fd5b506101ef610ca2565b6040518082815260200191505060405180910390f35b34801561021157600080fd5b5061021a610ca8565b6040518080602001828103825283818151815260200191508051906020019080838360005b8381101561025a57808201518184015260208101905061023f565b50505050905090810190601f1680156102875780820380516001836020036101000a031916815260200191505b509250505060405180910390f35b3480156102a157600080fd5b506102ee600480360360408110156102b857600080fd5b81019080803573ffffffffffffffffffffffffffffffffffffffff16906020019092919080359060200190929190505050610ce1565b604051808215151515815260200191505060405180910390f35b34801561031457600080fd5b506103416004803603602081101561032b57600080fd5b8101908080359060200190929190505050610cff565b6040518082815260200191505060405180910390f35b34801561036357600080fd5b5061036c610d1f565b6040518082815260200191505060405180910390f35b34801561038e57600080fd5b506103bb600480360360208110156103a557600080fd5b8101908080359060200190929190505050610d28565b604051808881526020018781526020018681526020018581526020018481526020018381526020018215151515815260200197505050505050505060405180910390f35b34801561040b57600080fd5b50610414610e4f565b6040518082815260200191505060405180910390f35b34801561043657600080fd5b5061043f610e55565b604051808273ffffffffffffffffffffffffffffffffffffffff1673ffffffffffffffffffffffffffffffffffffffff16815260200191505060405180910390f35b34801561048d57600080fd5b506104fa600480360360608110156104a457600080fd5b81019080803573ffffffffffffffffffffffffffffffffffffffff169060200190929190803573ffffffffffffffffffffffffffffffffffffffff16906020019092919080359060200190929190505050610e7b565b604051808215151515815260200191505060405180910390f35b34801561052057600080fd5b50610529610f3a565b6040518082815260200191505060405180910390f35b34801561054b57600080fd5b506105986004803603604081101561056257600080fd5b81019080803573ffffffffffffffffffffffffffffffffffffffff16906020019092919080359060200190929190505050610f3f565b604051808215151515815260200191505060405180910390f35b3480156105be57600080fd5b506105eb600480360360208110156105d557600080fd5b8101908080359060200190929190505050610ff2565b005b3480156105f957600080fd5b506106266004803603602081101561061057600080fd5b8101908080359060200190929190505050611006565b6040518082815260200191505060405180910390f35b34801561064857600080fd5b50610651611026565b6040518080602001828103825283818151815260200191508051906020019080838360005b83811015610691578082015181840152602081019050610676565b50505050905090810190601f1680156106be5780820380516001836020036101000a031916815260200191505b509250505060405180910390f35b3480156106d857600080fd5b5061071b600480360360208110156106ef57600080fd5b81019080803573ffffffffffffffffffffffffffffffffffffffff16906020019092919050505061105f565b6040518082815260200191505060405180910390f35b34801561073d57600080fd5b506107466110a8565b6040518082815260200191505060405180910390f35b34801561076857600080fd5b506107716110b0565b6040518082815260200191505060405180910390f35b34801561079357600080fd5b506107c0600480360360208110156107aa57600080fd5b81019080803590602001909291905050506110b5565b6040518082815260200191505060405180910390f35b3480156107e257600080fd5b506107eb6110d5565b6040518080602001828103825283818151815260200191508051906020019080838360005b8381101561082b578082015181840152602081019050610810565b50505050905090810190601f1680156108585780820380516001836020036101000a031916815260200191505b509250505060405180910390f35b34801561087257600080fd5b5061087b61110e565b6040518082815260200191505060405180910390f35b34801561089d57600080fd5b506108ea600480360360408110156108b457600080fd5b81019080803573ffffffffffffffffffffffffffffffffffffffff16906020019092919080359060200190929190505050611116565b604051808215151515815260200191505060405180910390f35b34801561091057600080fd5b5061095d6004803603604081101561092757600080fd5b81019080803573ffffffffffffffffffffffffffffffffffffffff169060200190929190803590602001909291905050506111c9565b604051808215151515815260200191505060405180910390f35b34801561098357600080fd5b506109ba6004803603604081101561099a57600080fd5b810190808035906020019092919080359060200190929190505050611220565b6040518082815260200191505060405180910390f35b3480156109dc57600080fd5b50610a13600480360360408110156109f357600080fd5b810190808035906020019092919080359060200190929190505050611933565b6040518082815260200191505060405180910390f35b348015610a3557600080fd5b50610a3e611a4a565b6040518082815260200191505060405180910390f35b348015610a6057600080fd5b50610a8d60048036036020811015610a7757600080fd5b8101908080359060200190929190505050611a50565b604051808873ffffffffffffffffffffffffffffffffffffffff1673ffffffffffffffffffffffffffffffffffffffff1681526020018781526020018681526020018581526020018481526020018381526020018215151515815260200197505050505050505060405180910390f35b348015610b0957600080fd5b50610b6c60048036036040811015610b2057600080fd5b81019080803573ffffffffffffffffffffffffffffffffffffffff169060200190929190803573ffffffffffffffffffffffffffffffffffffffff169060200190929190505050611b42565b6040518082815260200191505060405180910390f35b348015610b8e57600080fd5b50610bbb60048036036020811015610ba557600080fd5b8101908080359060200190929190505050611bc9565b604051808215151515815260200191505060405180910390f35b348015610be157600080fd5b50610bea611bf6565b6040518082815260200191505060405180910390f35b348015610c0c57600080fd5b50610c3960048036036020811015610c2357600080fd5b8101908080359060200190929190505050611bfc565b6040518082815260200191505060405180910390f35b348015610c5b57600080fd5b50610c8860048036036020811015610c7257600080fd5b8101908080359060200190929190505050611c43565b604051808215151515815260200191505060405180910390f35b60025481565b6040518060400160405280600581526020017f504958425900000000000000000000000000000000000000000000000000000081525081565b6000610cf5610cee612356565b848461235e565b6001905092915050565b600060076000838152602001908152602001600020600401549050919050565b60008054905090565b600080600080600080600080905062015180600760008a815260200190815260200160002060030154420381610d5a57fe5b0496506007600089815260200190815260200160002060050154871115610db2576007600089815260200190815260200160002060050154965060076000898152602001908152602001600020600101549250600190505b6001600760008a815260200190815260200160002060050154038703955085600760008a815260200190815260200160002060020154029450610dff60018861255590919063ffffffff16565b9150610e14858461255590919063ffffffff16565b925060076000898152602001908152602001600020600201549350868686868686869650965096509650965096509650919395979092949650565b60035481565b600660009054906101000a900473ffffffffffffffffffffffffffffffffffffffff1681565b6000610e888484846125dd565b610f2f84610e94612356565b610f2a85600960008a73ffffffffffffffffffffffffffffffffffffffff1673ffffffffffffffffffffffffffffffffffffffff1681526020019081526020016000206000610ee1612356565b73ffffffffffffffffffffffffffffffffffffffff1673ffffffffffffffffffffffffffffffffffffffff1681526020019081526020016000205461287d90919063ffffffff16565b61235e565b600190509392505050565b601281565b6000610fe8610f4c612356565b84610fe38560096000610f5d612356565b73ffffffffffffffffffffffffffffffffffffffff1673ffffffffffffffffffffffffffffffffffffffff16815260200190815260200160002060008973ffffffffffffffffffffffffffffffffffffffff1673ffffffffffffffffffffffffffffffffffffffff1681526020019081526020016000205461255590919063ffffffff16565b61235e565b6001905092915050565b611003610ffd612356565b826128c7565b50565b600060076000838152602001908152602001600020600501549050919050565b6040518060400160405280600b81526020017f504958425920546f6b656e00000000000000000000000000000000000000000081525081565b6000600860008373ffffffffffffffffffffffffffffffffffffffff1673ffffffffffffffffffffffffffffffffffffffff168152602001908152602001600020549050919050565b600042905090565b601781565b600060076000838152602001908152602001600020600301549050919050565b6040518060400160405280600581526020017f504958425900000000000000000000000000000000000000000000000000000081525081565b633b9aca0081565b60006111bf611123612356565b846111ba8560096000611134612356565b73ffffffffffffffffffffffffffffffffffffffff1673ffffffffffffffffffffffffffffffffffffffff16815260200190815260200160002060008973ffffffffffffffffffffffffffffffffffffffff1673ffffffffffffffffffffffffffffffffffffffff1681526020019081526020016000205461287d90919063ffffffff16565b61235e565b6001905092915050565b60003073ffffffffffffffffffffffffffffffffffffffff168373ffffffffffffffffffffffffffffffffffffffff16141561120457600080fd5b61121661120f612356565b84846125dd565b6001905092915050565b6000826008600061122f612356565b73ffffffffffffffffffffffffffffffffffffffff1673ffffffffffffffffffffffffffffffffffffffff1681526020019081526020016000205410156112c1576040517f08c379a0000000000000000000000000000000000000000000000000000000008152600401808060200182810382526026815260200180612e926026913960400191505060405180910390fd5b60035483101561131c576040517f08c379a0000000000000000000000000000000000000000000000000000000008152600401808060200182810382526035815260200180612fa56035913960400191505060405180910390fd5b600454831115611377576040517f08c379a0000000000000000000000000000000000000000000000000000000008152600401808060200182810382526038815260200180612dec6038913960400191505060405180910390fd5b61138f61016d62015180612a6790919063ffffffff16565b8211156113e7576040517f08c379a000000000000000000000000000000000000000000000000000000000815260040180806020018281038252602f815260200180612f03602f913960400191505060405180910390fd5b6113fe600262015180612a6790919063ffffffff16565b8210158015611422575060006114206201518084612aed90919063ffffffff16565b145b611494576040517f08c379a00000000000000000000000000000000000000000000000000000000081526004018080602001828103825260158152602001807f57726f6e6720696e766573746d656e742074696d65000000000000000000000081525060200191505060405180910390fd5b60006114ac6201518084612b3790919063ffffffff16565b905060006114ba8583611933565b9050600060025490506002600081548092919060010191905055506040518061010001604052806114e9612356565b73ffffffffffffffffffffffffffffffffffffffff16815260200187815260200183815260200142815260200161153e61152f8662015180612a6790919063ffffffff16565b4261255590919063ffffffff16565b815260200160018152602001600015158152602001848152506007600083815260200190815260200160002060008201518160000160006101000a81548173ffffffffffffffffffffffffffffffffffffffff021916908373ffffffffffffffffffffffffffffffffffffffff1602179055506020820151816001015560408201518160020155606082015181600301556080820151816004015560a0820151816005015560c08201518160060160006101000a81548160ff02191690831515021790555060e08201518160070155905050600173ffffffffffffffffffffffffffffffffffffffff16611630612356565b73ffffffffffffffffffffffffffffffffffffffff167fddf252ad1be2c89b69c2b068fc378daa952ba7f163c4a11628f55a4df523b3ef886040518082815260200191505060405180910390a3600173ffffffffffffffffffffffffffffffffffffffff16600173ffffffffffffffffffffffffffffffffffffffff167fddf252ad1be2c89b69c2b068fc378daa952ba7f163c4a11628f55a4df523b3ef6116e18686612a6790919063ffffffff16565b6040518082815260200191505060405180910390a36116fe612356565b73ffffffffffffffffffffffffffffffffffffffff167f1e05593c042a009a22fee915b0caedc0b76f69240c310d199e12de1ee1d513ca878361174f8762015180024261255590919063ffffffff16565b60076000878152602001908152602001600020600201546007600088815260200190815260200160002060030154604051808681526020018581526020018481526020018381526020018281526020019550505050505060405180910390a261180786600860006117be612356565b73ffffffffffffffffffffffffffffffffffffffff1673ffffffffffffffffffffffffffffffffffffffff1681526020019081526020016000205461287d90919063ffffffff16565b60086000611813612356565b73ffffffffffffffffffffffffffffffffffffffff1673ffffffffffffffffffffffffffffffffffffffff168152602001908152602001600020819055506118c86118798761186b8686612a6790919063ffffffff16565b61255590919063ffffffff16565b60086000600173ffffffffffffffffffffffffffffffffffffffff1673ffffffffffffffffffffffffffffffffffffffff1681526020019081526020016000205461255590919063ffffffff16565b60086000600173ffffffffffffffffffffffffffffffffffffffff1673ffffffffffffffffffffffffffffffffffffffff168152602001908152602001600020819055506119218660005461287d90919063ffffffff16565b60008190555080935050505092915050565b6000805483106119ab576040517f08c379a000000000000000000000000000000000000000000000000000000000815260040180806020018281038252601b8152602001807f54686520696e766573746d656e7420697320746f6f206c61726765000000000081525060200191505060405180910390fd5b60006119eb61016d6119dd633b9aca006119cf601788612a6790919063ffffffff16565b612a6790919063ffffffff16565b612b3790919063ffffffff16565b90506000611a2784611a1987611a0b606487612b3790919063ffffffff16565b612a6790919063ffffffff16565b612b3790919063ffffffff16565b9050611a40633b9aca0082612b3790919063ffffffff16565b9250505092915050565b60045481565b60008060008060008060006007600089815260200190815260200160002060000160009054906101000a900473ffffffffffffffffffffffffffffffffffffffff16600760008a815260200190815260200160002060010154600760008b815260200190815260200160002060020154600760008c815260200190815260200160002060030154600760008d815260200190815260200160002060040154600760008e815260200190815260200160002060050154600760008f815260200190815260200160002060060160009054906101000a900460ff169650965096509650965096509650919395979092949650565b6000600960008473ffffffffffffffffffffffffffffffffffffffff1673ffffffffffffffffffffffffffffffffffffffff16815260200190815260200160002060008373ffffffffffffffffffffffffffffffffffffffff1673ffffffffffffffffffffffffffffffffffffffff16815260200190815260200160002054905092915050565b60006007600083815260200190815260200160002060060160009054906101000a900460ff169050919050565b60015481565b6000611c3c62015180611c2e60076000868152602001908152602001600020600301544261287d90919063ffffffff16565b612b3790919063ffffffff16565b9050919050565b6000611c4d612356565b73ffffffffffffffffffffffffffffffffffffffff166007600084815260200190815260200160002060000160009054906101000a900473ffffffffffffffffffffffffffffffffffffffff1673ffffffffffffffffffffffffffffffffffffffff1614611d06576040517f08c379a000000000000000000000000000000000000000000000000000000000815260040180806020018281038252602a815260200180612eb8602a913960400191505060405180910390fd5b600015156007600084815260200190815260200160002060060160009054906101000a900460ff16151514611d86576040517f08c379a0000000000000000000000000000000000000000000000000000000008152600401808060200182810382526021815260200180612e466021913960400191505060405180910390fd5b42611db16078600760008681526020019081526020016000206003015461255590919063ffffffff16565b10611e07576040517f08c379a000000000000000000000000000000000000000000000000000000000815260040180806020018281038252602d815260200180612f53602d913960400191505060405180910390fd5b42611e5c611e37600760008681526020019081526020016000206005015462015180612a6790919063ffffffff16565b600760008681526020019081526020016000206003015461255590919063ffffffff16565b10611eb2576040517f08c379a000000000000000000000000000000000000000000000000000000000815260040180806020018281038252602b815260200180612e67602b913960400191505060405180910390fd5b611edc6001600760008581526020019081526020016000206007015461255590919063ffffffff16565b60076000848152602001908152602001600020600501541115611f4a576040517f08c379a0000000000000000000000000000000000000000000000000000000008152600401808060200182810382526021815260200180612e466021913960400191505060405180910390fd5b60008090506000611f8f62015180611f8160076000888152602001908152602001600020600301544261287d90919063ffffffff16565b612b3790919063ffffffff16565b9050600760008581526020019081526020016000206007015481106120105760016007600086815260200190815260200160002060060160006101000a81548160ff02191690831515021790555060076000858152602001908152602001600020600701549050600760008581526020019081526020016000206001015491505b600061204e61203f6001600760008981526020019081526020016000206005015461287d90919063ffffffff16565b8361287d90919063ffffffff16565b9050600061207b826007600089815260200190815260200160002060020154612a6790919063ffffffff16565b905061209160018461255590919063ffffffff16565b60076000888152602001908152602001600020600501819055506120be818561255590919063ffffffff16565b935060008411156122e3576120de8460005461255590919063ffffffff16565b6000819055506121378460086000600173ffffffffffffffffffffffffffffffffffffffff1673ffffffffffffffffffffffffffffffffffffffff1681526020019081526020016000205461287d90919063ffffffff16565b60086000600173ffffffffffffffffffffffffffffffffffffffff1673ffffffffffffffffffffffffffffffffffffffff168152602001908152602001600020819055506121d4846008600061218b612356565b73ffffffffffffffffffffffffffffffffffffffff1673ffffffffffffffffffffffffffffffffffffffff1681526020019081526020016000205461255590919063ffffffff16565b600860006121e0612356565b73ffffffffffffffffffffffffffffffffffffffff1673ffffffffffffffffffffffffffffffffffffffff16815260200190815260200160002081905550612226612356565b73ffffffffffffffffffffffffffffffffffffffff16600173ffffffffffffffffffffffffffffffffffffffff167fddf252ad1be2c89b69c2b068fc378daa952ba7f163c4a11628f55a4df523b3ef866040518082815260200191505060405180910390a383612294612356565b73ffffffffffffffffffffffffffffffffffffffff167f1ecbcbca3558b6aacfb8dac9579c76a3e2901314a1239e731b4a6fde434e5e4060405160405180910390a36001945050505050612351565b6040517f08c379a00000000000000000000000000000000000000000000000000000000081526004018080602001828103825260208152602001807f5468657265206973206e6f20746f74616c20726577617264206561726e65642e81525060200191505060405180910390fd5b919050565b600033905090565b600073ffffffffffffffffffffffffffffffffffffffff168373ffffffffffffffffffffffffffffffffffffffff1614156123e4576040517f08c379a0000000000000000000000000000000000000000000000000000000008152600401808060200182810382526024815260200180612fda6024913960400191505060405180910390fd5b600073ffffffffffffffffffffffffffffffffffffffff168273ffffffffffffffffffffffffffffffffffffffff16141561246a576040517f08c379a0000000000000000000000000000000000000000000000000000000008152600401808060200182810382526022815260200180612e246022913960400191505060405180910390fd5b80600960008573ffffffffffffffffffffffffffffffffffffffff1673ffffffffffffffffffffffffffffffffffffffff16815260200190815260200160002060008473ffffffffffffffffffffffffffffffffffffffff1673ffffffffffffffffffffffffffffffffffffffff168152602001908152602001600020819055508173ffffffffffffffffffffffffffffffffffffffff168373ffffffffffffffffffffffffffffffffffffffff167f8c5be1e5ebec7d5bd14f71427d1e84f3dd0314c0f7b2291e5b200ac8c7c3b925836040518082815260200191505060405180910390a3505050565b6000808284019050838110156125d3576040517f08c379a000000000000000000000000000000000000000000000000000000000815260040180806020018281038252601b8152602001807f536166654d6174683a206164646974696f6e206f766572666c6f77000000000081525060200191505060405180910390fd5b8091505092915050565b600073ffffffffffffffffffffffffffffffffffffffff168373ffffffffffffffffffffffffffffffffffffffff161415612663576040517f08c379a0000000000000000000000000000000000000000000000000000000008152600401808060200182810382526025815260200180612f806025913960400191505060405180910390fd5b600073ffffffffffffffffffffffffffffffffffffffff168273ffffffffffffffffffffffffffffffffffffffff1614156126e9576040517f08c379a0000000000000000000000000000000000000000000000000000000008152600401808060200182810382526023815260200180612dc96023913960400191505060405180910390fd5b61273b81600860008673ffffffffffffffffffffffffffffffffffffffff1673ffffffffffffffffffffffffffffffffffffffff1681526020019081526020016000205461287d90919063ffffffff16565b600860008573ffffffffffffffffffffffffffffffffffffffff1673ffffffffffffffffffffffffffffffffffffffff168152602001908152602001600020819055506127d081600860008573ffffffffffffffffffffffffffffffffffffffff1673ffffffffffffffffffffffffffffffffffffffff1681526020019081526020016000205461255590919063ffffffff16565b600860008473ffffffffffffffffffffffffffffffffffffffff1673ffffffffffffffffffffffffffffffffffffffff168152602001908152602001600020819055508173ffffffffffffffffffffffffffffffffffffffff168373ffffffffffffffffffffffffffffffffffffffff167fddf252ad1be2c89b69c2b068fc378daa952ba7f163c4a11628f55a4df523b3ef836040518082815260200191505060405180910390a3505050565b60006128bf83836040518060400160405280601e81526020017f536166654d6174683a207375627472616374696f6e206f766572666c6f770000815250612b81565b905092915050565b600073ffffffffffffffffffffffffffffffffffffffff168273ffffffffffffffffffffffffffffffffffffffff16141561294d576040517f08c379a0000000000000000000000000000000000000000000000000000000008152600401808060200182810382526021815260200180612f326021913960400191505060405180910390fd5b61299f81600860008573ffffffffffffffffffffffffffffffffffffffff1673ffffffffffffffffffffffffffffffffffffffff1681526020019081526020016000205461287d90919063ffffffff16565b600860008473ffffffffffffffffffffffffffffffffffffffff1673ffffffffffffffffffffffffffffffffffffffff168152602001908152602001600020819055506129f78160005461287d90919063ffffffff16565b600081905550600073ffffffffffffffffffffffffffffffffffffffff168273ffffffffffffffffffffffffffffffffffffffff167fddf252ad1be2c89b69c2b068fc378daa952ba7f163c4a11628f55a4df523b3ef836040518082815260200191505060405180910390a35050565b600080831415612a7a5760009050612ae7565b6000828402905082848281612a8b57fe5b0414612ae2576040517f08c379a0000000000000000000000000000000000000000000000000000000008152600401808060200182810382526021815260200180612ee26021913960400191505060405180910390fd5b809150505b92915050565b6000612b2f83836040518060400160405280601881526020017f536166654d6174683a206d6f64756c6f206279207a65726f0000000000000000815250612c41565b905092915050565b6000612b7983836040518060400160405280601a81526020017f536166654d6174683a206469766973696f6e206279207a65726f000000000000815250612d02565b905092915050565b6000838311158290612c2e576040517f08c379a00000000000000000000000000000000000000000000000000000000081526004018080602001828103825283818151815260200191508051906020019080838360005b83811015612bf3578082015181840152602081019050612bd8565b50505050905090810190601f168015612c205780820380516001836020036101000a031916815260200191505b509250505060405180910390fd5b5060008385039050809150509392505050565b6000808314158290612cee576040517f08c379a00000000000000000000000000000000000000000000000000000000081526004018080602001828103825283818151815260200191508051906020019080838360005b83811015612cb3578082015181840152602081019050612c98565b50505050905090810190601f168015612ce05780820380516001836020036101000a031916815260200191505b509250505060405180910390fd5b50828481612cf857fe5b0690509392505050565b60008083118290612dae576040517f08c379a00000000000000000000000000000000000000000000000000000000081526004018080602001828103825283818151815260200191508051906020019080838360005b83811015612d73578082015181840152602081019050612d58565b50505050905090810190601f168015612da05780820380516001836020036101000a031916815260200191505b509250505060405180910390fd5b506000838581612dba57fe5b04905080915050939250505056fe45524332303a207472616e7366657220746f20746865207a65726f2061646472657373496e766573746d656e7420616d6f756e742073686f756c6420626520736d616c6c6572207468616e20322c3530302c30303020504958425945524332303a20617070726f766520746f20746865207a65726f206164647265737354686520696e766573746d656e7420697320616c726561647920636c61696d6564556e6c6f636b2074696d6520666f722074686520696e766573746d656e7420646964206e6f742070617373596f7520206861766520696e737566666963656e7420616d6f756e74206f6620746f6b656e734f6e6c792074686520696e766573746f722063616e20636c61696d2074686520696e766573746d656e74536166654d6174683a206d756c7469706c69636174696f6e206f766572666c6f77496e766573746d656e74207465726d2073686f756c6420626520736d616c6c6572207468616e20333635206461797345524332303a206275726e2066726f6d20746865207a65726f2061646472657373556e6c6f636b2074696d6520666f722074686520696e766573746d656e7420646964206e6f74206d617475726545524332303a207472616e736665722066726f6d20746865207a65726f2061646472657373496e766573746d656e7420616d6f756e742073686f756c642062652067726561746572207468616e2033352c30303020504958425945524332303a20617070726f76652066726f6d20746865207a65726f2061646472657373a265627a7a7231582080c693c99d05c4ffd1aa42584483e5fa264de3a159aeb3cfd62e3a6b2c069b2564736f6c634300050b0032",
  "source": "pragma solidity 0.5.11;\r\nimport \"./SafeMath.sol\";\r\n\r\ncontract PIXBY   {\r\n    using SafeMath for uint256;\r\n\r\n   \r\n    event PassiveDeposit(\r\n        address indexed _investor2,\r\n        uint256 _investmentValue2,\r\n        uint256 _ID2,\r\n        uint256 _unlocktime2,\r\n        uint256 _dailyIncome,\r\n        uint256 _investmentTime\r\n    );\r\n   \r\n    event PassiveSpent(\r\n        address indexed _acclaimer2,\r\n        uint256 indexed _amout2\r\n    );\r\n    event Transfer(\r\n        address indexed _from,\r\n        address indexed _to,\r\n        uint256 _value\r\n    );\r\n    event Approval(\r\n        address indexed _owner,\r\n        address indexed _spender,\r\n        uint256 _value\r\n    );\r\n    string constant public name = \"PIXBY\";\r\n    string constant public symbol = \"PIXBY\";\r\n    string constant public standard = \"PIXBY Token\";\r\n    uint256 constant public decimals = 18 ;\r\n    uint256 private _totalSupply;\r\n    uint256 public totalInvestmentAfterInterest;\r\n    uint256 public passiveInvestorIndex = 1;\r\n    uint256 constant public interestRate = 23;\r\n    uint256 public minForPassive = 35000 * (10 ** uint256(decimals));\r\n    uint256 public maxForPassive = 2500000 * (10 ** uint256(decimals));\r\n    uint256 constant public Percent = 1000000000;\r\n    uint256 constant internal daysInYear = 365;\r\n    uint256 constant internal secondsInDay = 86400;\r\n    uint256 internal _startSupply = 450000000 * (10 ** uint256(decimals));\r\n    address payable public fundsWallet;\r\n    enum TermData {DEFAULT, ONE, TWO, THREE}\r\n\r\n    mapping(uint256 => PassiveIncome) private passiveInvestors;\r\n    mapping (address => uint256) private _balances;\r\n    mapping (address => mapping (address => uint256)) private _allowances;\r\n    \r\n    struct PassiveIncome {\r\n        address investorAddress2;\r\n        uint256 investedAmount2;\r\n        uint256 dailyPassiveIncome;\r\n        uint256 investmentTimeStamp;\r\n        uint256 investmentUnlocktime2;\r\n        uint256 day;\r\n        bool spent2;\r\n        uint256 Days;\r\n    }\r\n    constructor (address payable _fundsWallet)  public {\r\n        _totalSupply = _startSupply;\r\n        fundsWallet = _fundsWallet;\r\n        _balances[msg.sender] = _startSupply;\r\n        _balances[address(1)] = 0;\r\n        emit Transfer(\r\n            address(1),\r\n            msg.sender,\r\n            _startSupply\r\n        );\r\n    \r\n    }\r\n    function () external payable{\r\n        \r\n    }\r\n    /**\r\n     * @dev See {IERC20-totalSupply}.\r\n     */\r\n    function totalSupply() public view returns (uint256) {\r\n        return _totalSupply;\r\n    }\r\n    /**\r\n     * @dev See {IERC20-transfer}.\r\n     *\r\n     * Requirements:\r\n     *\r\n     * - `recipient` cannot be the zero address.\r\n     * - the caller must have a balance of at least `amount`.\r\n     */\r\n    function transfer(address recipient, uint256 amount) public returns (bool) {\r\n        require(recipient != address(this));\r\n        _transfer(_msgSender(), recipient, amount);\r\n        return true;\r\n    }\r\n    /**\r\n     * @dev See {IERC20-approve}.\r\n     *\r\n     * Requirements:\r\n     *\r\n     * - `spender` cannot be the zero address.\r\n     */\r\n    function approve(address spender, uint256 value) public returns (bool) {\r\n        _approve(_msgSender(), spender, value);\r\n        return true;\r\n    }\r\n    /**\r\n     * @dev See {IERC20-transferFrom}.\r\n     *\r\n     * Emits an {Approval} event indicating the updated allowance. This is not\r\n     * required by the EIP. See the note at the beginning of {ERC20};\r\n     *\r\n     * Requirements:\r\n     * - `sender` and `recipient` cannot be the zero address.\r\n     * - `sender` must have a balance of at least `value`.\r\n     * - the caller must have allowance for `sender`'s tokens of at least\r\n     * `amount`.\r\n     */\r\n    function transferFrom(address sender, address recipient, uint256 amount) public returns (bool) {\r\n        _transfer(sender, recipient, amount);\r\n        _approve(sender, _msgSender(), _allowances[sender][_msgSender()].sub(amount));\r\n        return true;\r\n    }\r\n    /**\r\n     * @dev See {IERC20-allowance}.\r\n     */\r\n    function allowance(address owner, address spender) public view returns (uint256) {\r\n        return _allowances[owner][spender];\r\n    }\r\n    /**\r\n     * @dev See {IERC20-balanceOf}.\r\n     */\r\n    function balanceOf(address account) public view returns (uint256) {\r\n        return _balances[account];\r\n    }\r\n    /**\r\n     * @dev Atomically increases the allowance granted to `spender` by the caller.\r\n     *\r\n     * This is an alternative to {approve} that can be used as a mitigation for\r\n     * problems described in {IERC20-approve}.\r\n     *\r\n     * Emits an {Approval} event indicating the updated allowance.\r\n     *\r\n     * Requirements:\r\n     *\r\n     * - `spender` cannot be the zero address.\r\n     */\r\n    function increaseAllowance(address spender, uint256 addedValue) public returns (bool) {\r\n        _approve(_msgSender(), spender, _allowances[_msgSender()][spender].add(addedValue));\r\n        return true;\r\n    }\r\n\r\n    /**\r\n     * @dev Atomically decreases the allowance granted to `spender` by the caller.\r\n     *\r\n     * This is an alternative to {approve} that can be used as a mitigation for\r\n     * problems described in {IERC20-approve}.\r\n     *\r\n     * Emits an {Approval} event indicating the updated allowance.\r\n     *\r\n     * Requirements:\r\n     *\r\n     * - `spender` cannot be the zero address.\r\n     * - `spender` must have allowance for the caller of at least\r\n     * `subtractedValue`.\r\n     */\r\n    function decreaseAllowance(address spender, uint256 subtractedValue) public returns (bool) {\r\n        _approve(_msgSender(), spender, _allowances[_msgSender()][spender].sub(subtractedValue));\r\n        return true;\r\n    }\r\n    /**\r\n     * @dev Moves tokens `amount` from `sender` to `recipient`.\r\n     *\r\n     * This is internal function is equivalent to {transfer}, and can be used to\r\n     * e.g. implement automatic token fees, slashing mechanisms, etc.\r\n     *\r\n     * Emits a {Transfer} event.\r\n     *\r\n     * Requirements:\r\n     *\r\n     * - `sender` cannot be the zero address.\r\n     * - `recipient` cannot be the zero address.\r\n     * - `sender` must have a balance of at least `amount`.\r\n     */\r\n    function _transfer(address sender, address recipient, uint256 amount) internal {\r\n        require(sender != address(0), \"ERC20: transfer from the zero address\");\r\n        require(recipient != address(0), \"ERC20: transfer to the zero address\");\r\n\r\n        _balances[sender] = _balances[sender].sub(amount);\r\n        _balances[recipient] = _balances[recipient].add(amount);\r\n        emit Transfer(sender, recipient, amount);\r\n    }\r\n    /**\r\n     * @dev Sets `amount` as the allowance of `spender` over the `owner`s tokens.\r\n     *\r\n     * This is internal function is equivalent to `approve`, and can be used to\r\n     * e.g. set automatic allowances for certain subsystems, etc.\r\n     *\r\n     * Emits an {Approval} event.\r\n     *\r\n     * Requirements:\r\n     *\r\n     * - `owner` cannot be the zero address.\r\n     * - `spender` cannot be the zero address.\r\n     */\r\n    function _approve(address owner, address spender, uint256 value) internal {\r\n        require(owner != address(0), \"ERC20: approve from the zero address\");\r\n        require(spender != address(0), \"ERC20: approve to the zero address\");\r\n\r\n        _allowances[owner][spender] = value;\r\n        emit Approval(owner, spender, value);\r\n    }\r\n    /**\r\n    * @dev Destroys `amount` tokens from the caller.\r\n    *\r\n    * See {ERC20-_burn}.\r\n    */\r\n    function burn(uint256 amount) public {\r\n        _burn(_msgSender(), amount);\r\n    }\r\n    /**\r\n     * @dev Destroys `amount` tokens from `account`, reducing the\r\n     * total supply.\r\n     *\r\n     * Emits a {Transfer} event with `to` set to the zero address.\r\n     *\r\n     * Requirements\r\n     *\r\n     * - `account` cannot be the zero address.\r\n     * - `account` must have at least `amount` tokens.\r\n     */\r\n    function _burn(address account, uint256 amount) internal {\r\n        require(account != address(0), \"ERC20: burn from the zero address\");\r\n\r\n        _balances[account] = _balances[account].sub(amount);\r\n        _totalSupply = _totalSupply.sub(amount);\r\n        emit Transfer(account, address(0), amount);\r\n    }\r\n    function _msgSender() internal view returns (address payable) {\r\n        return msg.sender;\r\n    }\r\n    \r\n    \r\n    function makePassiveIncomeInvestment(uint256 _amount,uint256 _unlockTime) external returns (uint256) {\r\n        require(_balances[_msgSender()] >= _amount, \"You  have insufficent amount of tokens\");\r\n        require(_amount >= minForPassive, \"Investment amount should be greater than 35,000 PIXBY\");\r\n        require(_amount <= maxForPassive, \"Investment amount should be smaller than 2,500,000 PIXBY\");\r\n        require(_unlockTime <= secondsInDay.mul(365), \"Investment term should be smaller than 365 days\");\r\n        require(_unlockTime >= (secondsInDay.mul(2)) && (_unlockTime.mod(secondsInDay)) == 0, \"Wrong investment time\");\r\n\r\n        // Term time is currently in days\r\n        uint256 passiveDays = (_unlockTime.div(secondsInDay));\r\n\r\n        uint256 interestOnInvestment = getInterestRate(_amount, passiveDays);\r\n        uint256 currentInvestor = passiveInvestorIndex;\r\n        passiveInvestorIndex++;\r\n        passiveInvestors[currentInvestor] = PassiveIncome(\r\n            _msgSender(),\r\n            _amount,\r\n            interestOnInvestment,\r\n            block.timestamp,\r\n            block.timestamp.add(secondsInDay.mul(passiveDays)),\r\n            1,\r\n            false,\r\n            passiveDays\r\n        );\r\n        emit Transfer(\r\n            _msgSender(),\r\n            address(1),\r\n            _amount\r\n        );\r\n        emit Transfer(\r\n            address(1),\r\n            address(1),\r\n            interestOnInvestment.mul(passiveDays)\r\n        );\r\n        emit PassiveDeposit(\r\n            _msgSender(),\r\n            _amount,\r\n            currentInvestor,\r\n            block.timestamp.add((secondsInDay * passiveDays)),\r\n            passiveInvestors[currentInvestor].dailyPassiveIncome,\r\n            passiveInvestors[currentInvestor].investmentTimeStamp\r\n        );\r\n        _balances[_msgSender()] = _balances[_msgSender()].sub(_amount);\r\n        _balances[address(1)] = _balances[address(1)].add((interestOnInvestment.mul(passiveDays)).add(_amount));\r\n        _totalSupply = _totalSupply.sub(_amount);\r\n        return (currentInvestor);\r\n    }\r\n\r\n\r\n    function releasePassiveIncome(uint256 _passiveIncomeID) external returns (bool success) {\r\n        require(passiveInvestors[_passiveIncomeID].investorAddress2 == _msgSender(), \"Only the investor can claim the investment\");\r\n        require(passiveInvestors[_passiveIncomeID].spent2 == false, \"The investment is already claimed\");\r\n\r\n        require(passiveInvestors[_passiveIncomeID].investmentTimeStamp.add(120) < block.timestamp,\r\n        \"Unlock time for the investment did not mature\");\r\n        require(passiveInvestors[_passiveIncomeID].investmentTimeStamp.add((\r\n        secondsInDay.mul(passiveInvestors[_passiveIncomeID].day))) < block.timestamp,\r\n        \"Unlock time for the investment did not pass\");\r\n        require(passiveInvestors[_passiveIncomeID].day <= passiveInvestors[_passiveIncomeID].Days.add(1), \"The investment is already claimed\");\r\n        uint256 totalReward = 0;\r\n        uint256 numberOfDaysHeld = (block.timestamp.sub(passiveInvestors[_passiveIncomeID].investmentTimeStamp)).div(secondsInDay);\r\n        if(numberOfDaysHeld >= passiveInvestors[_passiveIncomeID].Days){\r\n            passiveInvestors[_passiveIncomeID].spent2 = true;\r\n            numberOfDaysHeld = passiveInvestors[_passiveIncomeID].Days;\r\n            totalReward = passiveInvestors[_passiveIncomeID].investedAmount2;\r\n        }\r\n        uint numberOfDaysOwed = numberOfDaysHeld.sub((passiveInvestors[_passiveIncomeID].day.sub(1)));\r\n        uint totalDailyPassiveIncome = passiveInvestors[_passiveIncomeID].dailyPassiveIncome.mul(numberOfDaysOwed);\r\n        passiveInvestors[_passiveIncomeID].day = numberOfDaysHeld.add(1);\r\n        totalReward = totalReward.add(totalDailyPassiveIncome);\r\n        if(totalReward > 0){\r\n            _totalSupply = _totalSupply.add(totalReward);\r\n            _balances[address(1)] = _balances[address(1)].sub(totalReward);\r\n            _balances[_msgSender()] = _balances[_msgSender()].add(totalReward);\r\n            emit Transfer(\r\n                address(1),\r\n                _msgSender(),\r\n                totalReward\r\n            );\r\n            emit PassiveSpent(\r\n                _msgSender(),\r\n                totalReward\r\n            );\r\n            return true;\r\n        }\r\n        else{\r\n            revert(\r\n                \"There is no total reward earned.\"\r\n            );\r\n        }\r\n    }\r\n   \r\n   \r\n    \r\n    function getPassiveDetails (uint _passiveIncomeID) external view returns (\r\n        address investorAddress2,\r\n        uint256 investedAmount2,\r\n        uint256 dailyPassiveIncome,\r\n        uint256 investmentTimeStamp,\r\n        uint256 investmentUnlocktime2,\r\n        uint256 day,\r\n        bool spent2\r\n    ){\r\n        return(\r\n            passiveInvestors[_passiveIncomeID].investorAddress2,\r\n            passiveInvestors[_passiveIncomeID].investedAmount2,\r\n            passiveInvestors[_passiveIncomeID].dailyPassiveIncome,\r\n            passiveInvestors[_passiveIncomeID].investmentTimeStamp,\r\n            passiveInvestors[_passiveIncomeID].investmentUnlocktime2,\r\n            passiveInvestors[_passiveIncomeID].day,\r\n            passiveInvestors[_passiveIncomeID].spent2\r\n        );\r\n    }\r\n    function getPassiveIncomeDay(uint256 _passiveIncomeID) external view returns (uint256) {\r\n        return(passiveInvestors[_passiveIncomeID].day);\r\n    }\r\n    function getPassiveIncomeStatus(uint256 _passiveIncomeID) external view returns (bool) {\r\n        return (passiveInvestors[_passiveIncomeID].spent2);\r\n    }\r\n    function getPassiveInvestmentTerm(uint256 _passiveIncomeID) external view returns (uint256){\r\n        return (passiveInvestors[_passiveIncomeID].investmentUnlocktime2);\r\n    }\r\n    function getPassiveNumberOfDays (uint _passiveIncomeID) external view returns (uint256){\r\n        return (block.timestamp.sub(passiveInvestors[_passiveIncomeID].investmentTimeStamp)).div(secondsInDay);\r\n    }\r\n    function getPassiveInvestmentTimeStamp(uint256 _passiveIncomeID) external view returns (uint256){\r\n        return (passiveInvestors[_passiveIncomeID].investmentTimeStamp);\r\n    }\r\n   \r\n  \r\n    function getBlockTimestamp () external view returns (uint blockTimestamp){\r\n        return block.timestamp;\r\n    }\r\n    function getInterestRate(uint256 _investment, uint _term) public view returns (uint256 rate) {\r\n        require(_investment < _totalSupply, \"The investment is too large\");\r\n\r\n\r\n        uint256 Precentege = _term.mul(23).mul(Percent).div(365);\r\n        uint256 interestoninvestment = Precentege.div(100).mul(_investment).div(_term);\r\n\r\n        return (interestoninvestment.div(Percent));\r\n\r\n    }\r\n   \r\n    function getSimulatedDailyIncome (uint _passiveIncomeID) external view returns (\r\n        uint _numberOfDaysHeld,\r\n        uint _numberOfDaysOwed,\r\n        uint _totalDailyPassiveIncome,\r\n        uint _dailyPassiveIncome,\r\n        uint _totalReward,\r\n        uint _day,\r\n        bool _spent\r\n    ){\r\n        _spent = false;\r\n        _numberOfDaysHeld = (block.timestamp - passiveInvestors[_passiveIncomeID].investmentTimeStamp) / secondsInDay;\r\n        if(_numberOfDaysHeld > passiveInvestors[_passiveIncomeID].day){\r\n            _numberOfDaysHeld = passiveInvestors[_passiveIncomeID].day;\r\n            _totalReward = passiveInvestors[_passiveIncomeID].investedAmount2;\r\n            _spent = true;\r\n        }\r\n        _numberOfDaysOwed = _numberOfDaysHeld - (passiveInvestors[_passiveIncomeID].day - 1);\r\n        _totalDailyPassiveIncome = passiveInvestors[_passiveIncomeID].dailyPassiveIncome * _numberOfDaysOwed;\r\n        _day = _numberOfDaysHeld.add(1);\r\n        _totalReward = _totalReward.add(_totalDailyPassiveIncome);\r\n        _dailyPassiveIncome = passiveInvestors[_passiveIncomeID].dailyPassiveIncome;\r\n        return (\r\n            _numberOfDaysHeld,\r\n            _numberOfDaysOwed,\r\n            _totalDailyPassiveIncome,\r\n            _dailyPassiveIncome,\r\n            _totalReward,\r\n            _day,\r\n            _spent\r\n        );\r\n    }\r\n}",
  "sourcePath": "C:/Users/shadi/Documents/GitHub/Smart-Contracts/contracts/pixby.sol",
  "compiler": {
    "name": "solc",
    "version": "0.5.11+commit.c082d0b4.Emscripten.clang"
  },
  "schemaVersion": "3.2.3",
  "updatedAt": "2020-07-30T15:19:54.992Z",
  "devdoc": {
    "methods": {
      "allowance(address,address)": {
        "details": "See {IERC20-allowance}.\r"
      },
      "approve(address,uint256)": {
        "details": "See {IERC20-approve}.\r      * Requirements:\r      * - `spender` cannot be the zero address.\r"
      },
      "balanceOf(address)": {
        "details": "See {IERC20-balanceOf}.\r"
      },
      "burn(uint256)": {
        "details": "Destroys `amount` tokens from the caller.\r     * See {ERC20-_burn}.\r"
      },
      "decreaseAllowance(address,uint256)": {
        "details": "Atomically decreases the allowance granted to `spender` by the caller.\r      * This is an alternative to {approve} that can be used as a mitigation for\r problems described in {IERC20-approve}.\r      * Emits an {Approval} event indicating the updated allowance.\r      * Requirements:\r      * - `spender` cannot be the zero address.\r - `spender` must have allowance for the caller of at least\r `subtractedValue`.\r"
      },
      "increaseAllowance(address,uint256)": {
        "details": "Atomically increases the allowance granted to `spender` by the caller.\r      * This is an alternative to {approve} that can be used as a mitigation for\r problems described in {IERC20-approve}.\r      * Emits an {Approval} event indicating the updated allowance.\r      * Requirements:\r      * - `spender` cannot be the zero address.\r"
      },
      "totalSupply()": {
        "details": "See {IERC20-totalSupply}.\r"
      },
      "transfer(address,uint256)": {
        "details": "See {IERC20-transfer}.\r      * Requirements:\r      * - `recipient` cannot be the zero address.\r - the caller must have a balance of at least `amount`.\r"
      },
      "transferFrom(address,address,uint256)": {
        "details": "See {IERC20-transferFrom}.\r      * Emits an {Approval} event indicating the updated allowance. This is not\r required by the EIP. See the note at the beginning of {ERC20};\r      * Requirements:\r - `sender` and `recipient` cannot be the zero address.\r - `sender` must have a balance of at least `value`.\r - the caller must have allowance for `sender`'s tokens of at least\r `amount`.\r"
      }
    }
  },
  "userdoc": {
    "methods": {}
  }
}